:1016CA00013F00013A0049000329290100010000F5
:1016DA00000D4800562929040000305B0D49000D11
:1016EA0029290B00020000000D013C004C002C1FB0
:1016FA001C1F1E1F1E1F1F1E1F1E1F41002B0041E5
:10170A000000FF41000C0041006AFF42006B00002C
:10171A0050001B0000000000000000000000000054
:06172A0000000001550063
:1018F900209335209432AF3FEF3395E0FEEF240A71
:10190900FFE43EFED3EF9414EE64809480E53F40FB
:101919000524F6FF8003240AFF90006DEFF0D293AF
:09192900C29490006A7401F022DE
:10193200209334209431AF3FEF3395E0FEEF240A39
:10194200FFE43EFED3EF9414EE64809480E53F40C2
:101952000524F6FF8003240AFF90006DEFF0C29386
:08196200D294E490006AF02227
:051A5100C293C29422C3
:101584008F27900060E0FCA3E0FDA3E0FEA3E0FF52
:10159400C004C005C006C007900017E0FCA3E0FD2E
:1015A400A3E0FEA3E0FFC007AF27AB07EB3395E052
:1015B400FAF9F8D007C3EF9BF52FEE9AF52EED99C3
:1015C400F52DEC98F52C900001E0F530A3E0F53111
:1015D400900064A3E0F53290006AE0F533A3E0F5EF
:1015E40034A3E0F535D007D006D005D00412135645
:0115F40022D4
:10196A00AB56AA57A9581204CA85F027F528900041
:10197A00667457F0A37417F0900066E0FCA3E09039
:10198A00006FF0E490006EF0ECFFE02FF0E02480AE
:01199A00F05C
:01199B002229
:10199C00900008E554F07B017A0079037D0612185B
:0E19AC0030AC06EF900009F0ECA3F0753C01A2
:0119BA00220A
:100F71007B017A0079647F007E0E1218B87B007ABB
:100F81000079277D047C007F027E0E12179178275D
:100F9100E6FFE4FCFDFE900017120611900017E039
:100FA100FCA3E0FDA3E0FEA3E0FF78081205E490B6
:100FB1000017120611900017E0F8A3E0F9A3E0FA78
:100FC100A3E0FBC0007828E6FFE4FCFDFED000EBC7
:100FD1002FFFEE3AFEED39FDEC38FC9000171206BA
:100FE10011900017E0FCA3E0FDA3E0FEA3E0FF7871
:100FF100081205E4900017120611900017E0F8A3FB
:10100100E0F9A3E0FAA3E0FBC0007829E6FFE4FCE5
:10101100FDFED000EB2FFFEE3AFEED39FDEC38FC82
:10102100900017120611900017E0FCA3E0FDA3E069
:10103100FEA3E0FF78081205E49000171206119054
:101041000017E0F8A3E0F9A3E0FAA3E0FBC0007801
:101051002AE6FFE4FCFDFED000EB2FFFEE3AFEEDA9
:1010610039FDEC38FC9000171206117B017A0079EA
:10107100017F067E0E1218B87B017A0079387F0253
:101081007E0C1218B87B017A00795E7F007E0C120B
:1010910018B8900038E0FEA3E0FFC3943CEE6480F2
:1010A100948040107C007D6412042D7D061204940E
:1010B1008E448F4590005EE0FEA3E0FFC3943CEEBA
:1010C10064809480400B7C007D0A1204948E4A8FC8
:0A10D1004BE4F540F541F546F54704
:0110DB0022F2
:03004300020AA608
:100AA600C0E0C0F0C083C082C0D075D000C000C016
:100AB60001C002C003C004C005C006C007E59A30E5
:100AC600E106539AFD755900E59A20E003020D658B
:100AD600539AFE754000754100755000AF39EF33EB
:100AE60095E0FE741B2FF58274003EF583E59BF0BE
:100AF600E5397018741B2FF58274003EF583E064A7
:100B0600297003020D60753900020D65E539B401DF
:100B160027FF3395E0FE741B2FF58274003EF583A4
:100B2600E0B42914741A2FF58274003EF583E0B4FC
:100B36002906755501020D60E55564016003020D35
:100B460058C3E539648094904003020D58E539FD99
:100B56003395E0FC741B2DF58274003CF583E0644C
:100B66000D6003020D6090003AF0A3F0741A2DF5A3
:100B76008274003CF583E0FF90003BE02FF090008C
:100B86003AE03400F0A3E0F8E4F0E890003AF074BC
:100B9600192DF58274003CF583E0FF90003BE02FB1
:100BA600F090003AE03400F07B017A00791BE539D9
:100BB60024FEFD121830900068EEF0A3EFF09000CE
:100BC6003AE06E7003A3E06F6003020D5890001DBB
:100BD600E024FC603A146049146062147003020D4C
:100BE6001A147003020D2A24FD7003020D3D1470C1
:100BF60003020D4E240B6003020D58900016E070A0
:100C06000804F0755A00755B0012199C020D58E530
:100C160045249CF541E54434FFF540753C02020D40
:100C260058900020E0FDB401061218F9020D58EDA7
:100C360064026003020D58121932020D589000200A
:100C4600E0FFE4FCFDFE900060120611900060E0FB
:100C5600FCA3E0FDA3E0FEA3E0FF78081205E49004
:100C66000060120611900060E0F8A3E0F9A3E0FA34
:100C7600A3E0FB900021E0FFE4FCFDFEEB2FFFEE7E
:100C86003AFEED39FDEC38FC90006012061190003A
:100C960060E0FCA3E0FDA3E0FEA3E0FF78081205F8
:100CA600E4900060120611900060E0F8A3E0F9A35A
:100CB600E0FAA3E0FB900022E0FFE4FCFDFEEB2F50
:100CC600FFEE3AFEED39FDEC38FC9000601206119D
:100CD600900060E0FCA3E0FDA3E0FEA3E0FF78083F
:100CE6001205E4900060120611900060E0F8A3E09F
:100CF600F9A3E0FAA3E0FB900023E0FFE4FCFDFE8D
:100D0600EB2FFFEE3AFEED39FDEC38FC9000601259
:100D16000611801E7B017A00791B7D051217EA12E7
:100D26000F71800E7B017A00791B7D05121A211244
:100D36000F71753C03801B90000C7401F075400028
:100D4600754100755000800590000CE4F0753C0478
:100D560080007539007555008005053953390FD067
:100D660007D006D005D004D003D002D001D000D0E1
:0A0D7600D0D082D083D0F0D0E0325C
:1019E700759A1075D7E075D6FEE4F539F55975AFD8
:0419F70001D2AF2248
:0A1A3200E55970FC7559018F9B22E5
:06001E008B278A288929C6
:10002400E4FEEEC39D5015AB27AA28A9298E82753C
:0C00340083001203DEFF121A320E80E679
:01004000229D
:101A0F0075DE2F75BC8E90FEA8E054E0F0E0440F19
:021A1F00F022B3
:041A560053BC7F22DC
:1019BB0043BC400000E5BC30E5FB53BCDFAFBDEFE3
:0519CB00FEADBEEDFFC2
:0119D00022F4
:040D80008E1D8F1E17
:100D8400AC1DAD1EEC1202E9E4FBFA797A78441248
:100D940002478F228E218D208C1F055BE55B70023C
:100DA400055AE4FB900016E0FDB4011BD3E55B9407
:100DB40002E55A94005003020E6CE4F0F55AF55B18
:100DC400AE4EAF4F020E67ED64027053D3E55B94F1
:100DD40002E55A94005003020E6CE4900016F0F5FC
:100DE4005AF55BAE4EAF4FD3EF9554EE9553500A80
:100DF400E5549464E553940040028067C3EF95542E
:100E0400EE95534003020F70C3E5549FFDE5539ED6
:100E1400FCD3ED9405EC94005003020F708044D38E
:100E2400E55B9415E55A9400403EE4F55AF55BAE53
:100E34004EAF4FFC7D1412043FD3EF9554EE9553FF
:100E44004015EF9554FDEE9553FCD3ED9405EC94C9
:100E54000040048E538F54C3EF9554EE95534003D2
:100E6400020F708E538F5422E55B6401455A70055E
:100E7400F54EF54F22C3E51E9404E51D648094905D
:100E8400401EEB70057464020F51C3E51E9418E50F
:100E94001D64809490400474648002745F020F5156
:100EA400C3E51E9478E51D6480948F4027E51E9465
:100EB40004E51D64809490501B7FE17E7A7D847CE0
:100EC400C0AB22AA21A920A81F12004D7BCD7ACC49
:100ED400794C8032C3E51E9494E51D6480948C4063
:100EE40051E51E9478E51D6480948F50457F0E7EF5
:100EF4002D7D867CC0AB22AA21A920A81F12004DFB
:100F04007B067A81798578BF120247A804A905AACD
:100F140006AB07E4FFFE7D807C3F120049E4FBFA48
:100F240079C8784212013E120322EF254FF54FEEA5
:100F34008020C3E51E94CCE51D6480948B4018E5A5
:100F44001E9494E51D6480948C500C7405254FF513
:100F54004FE4354EF54E22C3E51E94CCE51D648066
:0C0F6400948B5008054FE54F7002054EBD
:010F7000225E
:0213E9008F1A59
:1013EB00E4F51BF51CF551F552F54CF54D121A0FA2
:1013FB001219BB1219BBE4FBFA1219BBEF2552F5FC
:10140B0052EE3551F5510BBB00010AEB64084A70E3
:10141B00E8E552AE517803CEC313CE13D8F9F5528B
:10142B008E51FFE4FCFD7BA67A13F9F812054CE410
:10143B00FB7A04F9F8121874E51A6401702AEE337A
:10144B0095E0FDFCE47B23FAF9F812054CE47B0AEA
:10145B00FAF9F81218748E1B8F1C7C007D03120492
:0B146B003F8E4C8F4D120D80021A5670
:07000300758C27758AFF22AE
:1019FB00E4F53DF53EF548F549F540F541D2A9D260
:041A0B00AFD28C22A8
:03000B000210DC04
:1010DC00C0E0C0F0C083C082C0D075D000C000C0DA
:1010EC0001C002C003C004C005C006C007053EE530
:1010FC003E7002053D0541E541700205400543E5A2
:10110C004370020542D3E53E9432E53D6480948001
:10111C00500302121D753D00753E000549E54970EE
:10112C00020548900016E0B4010675480075491494
:10113C00E54964144548700E9000167402F0755A17
:10114C0000755B00801AD3E5499414E548648094DB
:10115C00804014D3E5499416E54864809480500788
:10116C007F011213E98013D3E5499416E548648096
:10117C0094804006754800754900D3E5439419E501
:10118C0042648094804015754200754300E55070B0
:10119C0004D2B2D2B3E550B40302D2B290000CE048
:1011AC00FF700A0541E541700A0540800675400054
:1011BC00754100D3E5419545E5446480F8E540640C
:1011CC008098404DEF704AE5506003B4031275509F
:1011DC0001C2B2C2B3D292754800754900121A56B8
:1011EC00E5452419FFE43544FED3E5419FEE6480C8
:1011FC00F8E5406480984019754000754100C28C38
:10120C00C28E90006FE0F5AA90006EE0F5AB7550C1
:10121C0002D007D006D005D004D003D002D001D024
:0C122C0000D0D0D082D083D0F0D0E032CF
:10166100E47B3CFAF9F8121874E47B3CFAF9F812BD
:101671001874AF03AE07900000E0B506037F0022A7
:1016810090002BE014602114602314602524037062
:1016910035C3E547954BE54A6480F8E54664809893
:1016A10040037F01227F0022EE701B8011BE1E16B7
:1016B100800CEE75F00F1203A3AFF0EF70089000ED
:0816C10000EEF07F01227F0022
:0116C90022FE
:071A3C00758D54758BA32288
:071A4300D2ABD2AFD28E221C
:03001B00021502C9
:10150200C0E0C0F0C083C082C0D075D000C000C0AF
:1015120004C005C006C007053F053AD3E53F648015
:101522009494402F753F0075C137900060E0FCA392
:10153200E0FDA3E0FEA3E02401FFE43EFEE43DFD66
:10154200E43CFC900060120611E5506003B4030312
:10155200753B0190006DE0B53F0674FFF0121A5121
:10156200E53AD394C84006753A00753C03D007D0DB
:1015720006D005D004D000D0D0D082D083D0F0D015
:02158200E03255
:10074A007556007557007558F812196A75C12790C1
:10075A0000167401F0E4F550F546F547F54A754B75
:10076A001275440B7545B8F53BF523438E17538E26
:10077A00FD90FE13E0547FF0E4F591439204539107
:10078A00F74392085391EF43921053B1FB43B204DB
:10079A0053B1F743B20843B14053B2BFD2B2D2B356
:1007AA00120F717553007554BCE4F54EF54FF55AA6
:1007BA00F55B1219E71200031219FB121A3C121AFE
:1007CA004390006012061D67F7B6D4121A51121927
:1007DA0032E53CB4010E7B017A0079037D091200EF
:1007EA001EE4F53CE53CB4020E7B017A0079567DA5
:1007FA000812001EE4F53CE53C640360030208F1BC
:10080A0090003C7429F0A3F0A3740AF0E4A3F0A3C7
:10081A007410F0900060E0FCA3E0FDA3E0FEA3E00A
:10082A00FF7B017A00793C752E051215F590006A56
:10083A00E0900045F0900064A3E0900046F090003C
:10084A0017E0FCA3E0FDA3E0FEA3E0FF7B017A0032
:10085A00793C752E0B1215F5900001E0FCA3E0FD22
:10086A00ECFF3395E0EF90004BF0A3EDF090005EC3
:10087A00E0FCA3E0FDECFF3395E0EF90004DF0A320
:10088A00EDF0900038E0FCA3E0FDECFF3395E0EFDB
:10089A0090004FF0A3EDF090006BE0FCA3E0FDECBC
:1008AA00FF3395E0EF900051F0A3EDF090002BE0BC
:1008BA00900053F090000CE0900054F07B017A0015
:1008CA00793C7D19121830AD07AC06ECFFEF9000A9
:1008DA0055F0A3EDF0A3740DF07B017A00793C7D0D
:0D08EA001C12001EE4F53CE53C6404702E79
:1008F70090000CE0900012F07B017A00790D7D06E4
:100907001218308E258F26EF900013F0E525A3F0FF
:0E0917007B017A00790D7D0912001EE4F53C8B
:10092500E550640260030209DF4387020547E54796
:100935007002054675C137900060E0FCA3E0FDA399
:10094500E0FEA3E0240AFFE43EFEE43DFDE43CFCBA
:100955009000601206110523D3E523648094854039
:1009650022E4F523900060E0FCA3E0FDA3E0FEA3F4
:10097500E02402FFE43EFEE43DFDE43CFC90006023
:10098500120611900060E0FCA3E0FDA3E0FEA3E0E9
:10099500FF121661EF6018E4F546F547F540F5419D
:1009A500F550F542754319F53FF53AD28CD28EC311
:1009B500E547954BE54A6480F8E546648098401A1A
:1009C500E4F546F547755003AE44AF45FC7D02128C
:1009D50004948E408F41D28CD28EE53B6401600336
:1009E5000207DBF53B90000CE060030207DBD390C8
:1009F500006CE0940090006BE064809480400CA350
:100A0500E024FFF090006BE034FFF0E4FF12158462
:100A15008F24E5246007E4F540F541F550E52424ED
:100A2500FD601F240260030207DB900001E0FFA3C5
:100A3500E090006BCFF0A3EFF01218F9753C0302BC
:100A450007DB121932900017E0F8A3E0F9A3E0FAEA
:100A5500A3E0FB900060E0FCA3E0FDA3E0FEA3E0C3
:100A6500C39BFFEE9AFEED99FDEC98FCE47B587A6A
:100A750002F9F8D31205BF4022900017E0FCA3E06D
:100A8500FDA3E0FEA3E09458FFEE9402FEED940072
:100A9500FDEC9400FC900017120611753C0302074B
:010AA500DB75
:071A4A0075C78075F50B2242
:0D000E00E4F5C7F5C5F5C675C380F5C4223D
:0E1791008E308F318C328D338B348A35893611
:10179F00121A4AE4FDFCC3ED9533E5326480F8EC90
:1017AF006480985033E5312DF538E5303CF53775C9
:1017BF00C5018538C4E537FF8FC375C65A75C6A5F1
:1017CF000000AB34AA35A9368D828C83E5C2120492
:0B17DF000B0DBD00010C80BE02000ECF
:041731008E0C8F0D7E
:10173500121A4AE4F513C3E5126480F8E5136480D0
:10174500985046AF13EF3395E0FEE50D2FF515E5FF
:101755000C3EF51475C5028515C4E514FF3395E0F7
:101765008FC3AF11EF3395E0FEAD13ED3395E0FC7C
:10177500EF2DF582EE3CF5831203DEF5C275C65AF0
:0C17850075C6A50000051380AD02000E23
:1019D100121A4A75C5038FC4EEFF8FC375C65A75B7
:0619E100C6A50002000E85
:0618B8008B2B8A2C892D08
:1018BE007B007A00792E7D027C00121791782EE63D
:1018CE00FFAB2BAA2CA92DE48FF012052DAB2BAA62
:1018DE002CA92D1204CA75F00012052D08E6FFABD7
:0B18EE002BAA2CA92DE48FF00204F5BA
:1017EA008B088A09890A8D0BAF0BEF3395E08F823C
:1017FA00F5831203DE90002BF07F007E0C1219D1C4
:10180A00E0AB08AA09A90A7009850B11751203FF32
:10181A00800A850B117512017F007E0C1217319018
:06182A00000074FFF02233
:101A21007F007E0E1219D18D117512087F000217E9
:011A31003183
:081356008F2B8E2A8D298C28B3
:10135E00E4F536E532700BE533B401037F03227FEB
:10136E000022E533B40113D3E5359400E5346480EF
:10137E00948050037F03227F0222AF2FAE2EAD2D1D
:10138E00AC2CAB2BAA2AA929A828C31205A9500B4D
:10139E00E533B401037F03227F0022AF2FAE2EADC3
:1013AE002DAC2CAB2BAA2AA929A828D31205A9400B
:1013BE0027E52B952FFFE52A952EFEE529952DFD88
:1013CE00E528952CFCE47B3CFAF9F8D31205A940EC
:0A13DE0007E53370037F0122AF36EC
:0113E80022E2
:1015F5008F2A8E298D288C278B2B8A2C892D78185C
:101605001205D0E52EFD3395E08D82F583EF1204AA
:101615000BAF2AAE29AD28AC2778101205D0E52EE0
:10162500FD3395E08D82F583A3EF12040BAF2AAE4F
:1016350029AD28AC2778081205D0E52EFD3395E0B5
:101645008D82F583A3A3EF12040BE52EFD3395E000
:0C1655008D82F583A3A3A3E52A02040BF9
:081238008B5C8A5D895E8D5F0D
:10124000E4F566F565F564F563AF5FEF3395E0FEB1
:10125000E92FF9EA3E8982F5831203DEFFE48F6607
:10126000F565F564F563AE65AD64AC6378081205A9
:10127000E48F668E658D648C63AF5FEF3395E0FE1F
:10128000EF2401FFE43EFEE55E2FF9EA3E8982F598
:10129000831203DEFFE4FCFDFEE5662FF566EE3506
:1012A00065F565ED3564F564EC3563F563AF66AE01
:1012B00065AD64FC78081205E48F668E658D648CDC
:1012C00063AF5FEF3395E0FEEF2402FFE43EFEE5FF
:1012D0005E2FF9EA3E8982F5831203DEFFE4FCFD0E
:1012E000FEE5662FF566EE3565F565ED3564F5646A
:1012F000EC3563F563AF66AE65AD64FC7808120546
:10130000E48F668E658D648C63AF5FEF3395E0FE8E
:10131000EF2403FFE43EFEE55E2FF9EA3E8982F505
:10132000831203DEFFE4FCFDFEE5662FF566EE3575
:1013300065F565ED3564F564EC3563F563AF66AE70
:1013400065AD64FCAB60AA61A9621205F7AF66AE39
:0513500065AD64AC6313
:011355002275
:1018300074FFF527F5281203C56228E4FCE528307B
:10184000E015E527C313FEE52813FFEE64A0F52796
:10185000EF6401F528800BE527C313F527E528136E
:10186000F5280CBC08D7740129F9E43AFADDC7AEB3
:0318700027AF2877
:011873002252
:1000460002038EE86480F8E933E83360110460F057
:10005600ED33EC337009E8FCE9FDEAFEEBFF220420
:1000660060DED3EB9FEA9EE99DE8C2E78CF0C2F71B
:1000760095F0400CE8CCF8E9CDF9EACEFAEBCFFBE7
:1000860012035985D0F05804700320D5B3E80470E4
:10009600075002B2D502039892D5EC0460F7E4CC7F
:1000A600C0E0C398F8603B94186008400DD0E0FBB0
:1000B600020370E4FBFAC9FC8028E830E406E4C9D0
:1000C600FBE4CAFCE830E305E4C9CACBFCE8540704
:1000D6006010F8C3E913F9EA13FAEB13FBEC13FC0F
:1000E600D8F130F52FC3E49CFCEF9BFFEE9AFEEDB2
:1000F60099FDD0E0FBEF4E4D4C701222DB0302035C
:1001060095EC2CFCEF33FFEE33FEED33FDED30E7DF
:10011600EB020370EF2BFFEE3AFEED39FDD0E0FB6C
:1001260050130BBB0003020398ED13FDEE13FEEF15
:0801360013FFEC13FC0203703F
:10013E00EC4D6011E8497017ED33EC3304600DE4BB
:10014E00FCFFFEFD22E933E8330470F802038E1241
:10015E00035958046009E4CC248150062850090242
:10016E000398284003020395C0E0EB4A7044B9801F
:10017E0006D0E0FB020384EF4E701CBD8008EBFF3F
:10018E00EAFEE9FD80EBE98DF0A4FEE5F002022720
:10019E00E9CDF9EAFEEBFFEF89F0A4FCE5F0CE899C
:1001AE00F0A42EFFE435F0CD89F0A42DFEE435F059
:1001BE008067EF4E7005BD80D780C3EF8BF0A4AC87
:1001CE00F0EE8BF0A42CFCE435F0F8EF8AF0A42CC2
:1001DE00E5F038FCE433CB8DF0A42CFCE5F03BF8D5
:1001EE00EE8AF0A42CFCE5F038F8E433CF89F0A4C5
:1001FE002CFCE5F038CF3400CE89F0A42FFFE5F0CB
:10020E003EFEE433C98DF0A42EFEE5F039CD8AF022
:10021E00A42FFFE5F03EFEE43DFD33D0E0FB50079A
:10022E000BBB000F020398EC2CFCEF33FFEE33FEFA
:06023E00ED33FD02037028
:10024400020398EC5D046005E85904700302038E10
:10025400120359580460F6EC4860F2EC7004FDFE99
:10026400FF22C860DB2481C85009C398600250068D
:100274000203959850CAF582E9294B4A7005AB826E
:1002840002038475F0007C1A7880C3EF9BEE9AED2C
:1002940099400DC3EF9BFFEE9AFEED99FDE842F005
:1002A400DC23ACF0D0E0FFD0E0FED0E0FDAB822058
:1002B400E7101BEB60BAEC2CFCEF33FFEE33FEEDE2
:1002C40033FD020370E803F830E705C0F075F00071
:1002D400EF2FFFEE33FEED33FD40B830E7C280AAC6
:1002E40075F020800E75F010800575F0087D007E95
:1002F400007F003392D530D50312059BEC334010B8
:10030400EF33FFEE33FEED33FDEC33FCD5F0ED229D
:0E031400E5F0247EA2D513CC92E7CDCEFF22D9
:10032200EDD2E7CD33EC3392D524814006E4FFFED3
:10033200FDFC22FCE4CFCECDCC24E0501174FF8032
:10034200EDC3CC13CCCD13CDCE13CECF13CF0470CF
:07035200F030D5DE02059B2F
:10035900E9D2E7C933E833F892D5EDD2E7CD33ECEA
:0703690033FC5002B2D52263
:10037000EC30E7100FBF000C0EBE00080DBD0004EE
:100380000BEB6014A2D5EB13FCED92E7FD2274FF9A
:10039000FCFDFEFF22E480F8A2D574FF13FC7D80F3
:0303A000E480EF07
:0300000002147671
:0C147600787FE4F6D8FD7581660214BD95
:1003A300C2D530F707B2D563F0FF05F030E70CB2E2
:1003B300D5F4048463F0FF05F080018430D502F4A2
:0203C300042212
:1003C500BB010689828A83E0225002E722BBFE0236
:0903D500E32289828A83E4932269
:1003DE00BB010CE58229F582E5833AF583E02250D4
:1003EE0006E92582F8E622BBFE06E92582F8E2221E
:0D03FE00E58229F582E5833AF583E4932238
:10040B00F8BB010DE58229F582E5833AF583E8F027
:10041B00225006E92582C8F622BBFE05E92582C8D3
:02042B00F222BB
:10042D00EF8DF0A4A8F0CF8CF0A428CE8DF0A42EE3
:02043D00FE229D
:10043F00BC000BBE0029EF8DF084FFADF022E4CCA1
:10044F00F875F008EF2FFFEE33FEEC33FCEE9DEC6A
:10045F00984005FCEE9DFE0FD5F0E9E4CEFD22EDB0
:10046F00F8F5F0EE8420D21CFEADF075F008EF2FFA
:10047F00FFED33FD4007985006D5F0F222C398FDEB
:05048F000FD5F0EA2288
:10049400C2D5EC30E709B2D5E4C39DFDE49CFCEE83
:1004A40030E715B2D5E4C39FFFE49EFE12043FC3B8
:1004B400E49DFDE49CFC800312043F30D507C3E4B3
:0604C4009FFFE49EFE22F2
:1004CA00BB010A89828A83E0F5F0A3E022500687FD
:1004DA00F009E71922BBFE07E3F5F009E3192289BF
:0B04EA00828A83E493F5F074019322F2
:1004F500BB010789828A8302064E500B09C5F02786
:10050500F7C5F01937F722BBFE0D09F8E325F0F31F
:10051500C5F019E338F322F889828A83740193259B
:08052500F0C5F0F8E493382260
:10052D00BB010A89828A83F0E5F0A3F0225006F719
:0F053D0009A7F01922BBFE06F3E5F009F3192216
:10054C00E88FF0A4CC8BF0A42CFCE98EF0A42CFC4E
:10055C008AF0EDA42CFCEA8EF0A4CDA8F08BF0A4CC
:10056C002DCC3825F0FDE98FF0A42CCD35F0FCEB2B
:10057C008EF0A4FEA9F0EB8FF0A4CFC5F02ECD39F0
:0F058C00FEE43CFCEAA42DCE35F0FDE43CFC225D
:10187400C2D5E830E70FB2D5E4C39BFBE49AFAE49F
:1018840099F9E498F8EC30E717B2D51218AA1206C1
:10189400A0E4C39BFBE49AFAE499F9E498F8800382
:1018A4001206A030D50DE4C39FFFE49EFEE49DFD27
:0418B400E49CFC2292
:0E059B00C3E49FFFE49EFEE49DFDE49CFC2271
:1005A900EB9FF5F0EA9E42F0E99D42F0EC6480C8C9
:0605B90064809845F02269
:1005BF00EB9FF5F0EA9E42F0E99D42F0E89C45F092
:0105CF002209
:1005D000E86010ECA2E713FCED13FDEE13FEEF1341
:0405E000FFD8F0222E
:1005E400E8600FEFC333FFEE33FEED33FDEC33FC75
:0305F400D8F12219
:1005F700BB010789828A830206115005E9F80207C1
:0A06070032BBFE05E9F802073E22AF
:0C061100ECF0A3EDF0A3EEF0A3EFF0225C
:10061D00A8828583F0D083D082120634120634125C
:10062D000634120634E473E493A3C583C5F0C58381
:10063D00C8C582C8F0A3C583C5F0C583C8C582C827
:01064D00228A
:1014820002074AE493A3F8E493A34003F68001F22F
:1014920008DFF48029E493A3F85407240CC8C3336B
:1014A200C4540F4420C8834004F456800146F6DF3A
:1014B200E4800B01020408102040809016CAE47EEA
:1014C200019360BCA3FF543F30E509541FFEE4932F
:1014D200A360010ECF54C025E060A840B8E493A3F6
:1014E200FAE493A3F8E493A3C8C582C8CAC583CA21
:1014F200F0A3C8C582C8CAC583CADFE9DEE780BED9
:0117300000B8
:10064E00C5F0F8A3E028F0C5F0F8E5821582700237
:06065E001583E038F022D4
:1006640075F008758200EF2FFFEE33FECD33CDCC4D
:1006740033CCC58233C5829BED9AEC99E5829840D0
:100684000CF582EE9BFEED9AFDEC99FC0FD5F0D6AD
:10069400E4CEFBE4CDFAE4CCF9A88222B800C1B9D7
:1006A4000059BA002DEC8BF084CFCECDFCE5F0CB15
:1006B400F97818EF2FFFEE33FEED33FDEC33FCEB4E
:1006C40033FB10D703994004EB99FB0FD8E5E4F909
:1006D400FA227818EF2FFFEE33FEED33FDEC33FCF6
:1006E400C933C910D7059BE99A4007EC9BFCE99AEA
:1006F400F90FD8E0E4C9FAE4CCFB2275F010EF2F2F
:10070400FFEE33FEED33FDCC33CCC833C810D7072E
:100714009BEC9AE899400AED9BFDEC9AFCE899F869
:0E0724000FD5F0DAE4CDFBE4CCFAE4C8F922FC
:0C073200ECF608EDF608EEF608EFF622F3
:0C073E00ECF208EDF208EEF208EFF222F7
:00000001FF
